:020000040800F2
:1000000000800120C503000815040008150400083D
:10001000150400081504000815040008000000007D
:1000200000000000000000000000000015040008AF
:10003000000000000000000015040008150400087E
:10004000150400081504000815040008150400082C
:10005000150400081504000815040008150400081C
:10006000150400081504000815040008150400080C
:1000700015040008150400081504000815040008FC
:1000800015040008150400081504000815040008EC
:1000900015040008150400081504000815040008DC
:1000A00015040008150400081504000815040008CC
:1000B00015040008150400081504000815040008BC
:1000C00015040008150400081504000815040008AC
:1000D000150400081504000815040008150400089C
:1000E000150400081504000815040008150400088C
:1000F000150400081504000815040008150400087C
:10010000150400081504000815040008150400086B
:10011000150400081504000815040008150400085B
:10012000150400081504000815040008150400084B
:10013000150400081504000815040008150400083B
:10014000150400081504000815040008150400082B
:10015000150400081504000815040008150400081B
:10016000150400081504000815040008150400080B
:1001700015040008150400081504000815040008FB
:04018000150400085A
:1001840010B5054C237833B9044B13B10448AFF3CD
:1001940000800123237010BD08000020000000002F
:1001A4001804000808B5034B1BB103490348AFF317
:1001B400008008BD000000000C00002018040008A6
:1001C40070B50D4D0D4C641BA4100026A64209D138
:1001D4000B4D0C4C00F01EF9641BA4100026A64223
:1001E40005D170BD55F8043B98470136EEE755F844
:1001F400043B98470136F2E7300400083004000855
:10020400300400083804000870477047024B13B1EB
:10021400024800F005B870470000000031020008F1
:10022400002301461A46184600F014B838B5074DA5
:10023400074C641BA4101CB9BDE8384000F0F0B8AA
:10024400013C55F824309847F5E700BF380400080E
:100254003C0400082DE9F047DFF874A00646DAF8FC
:10026400000098460F469146FFF7CEFF164B1C68D8
:100274000CB9164C1C606568DAF800001F2D05DD0A
:10028400FFF7C3FF4FF0FF30BDE8F0879EB104EBEA
:1002940085010122C1F88890D4F88831AA4013431B
:1002A400C4F88831022EC1F8088102BFD4F88C3119
:1002B4001343C4F88C316B1C0235636044F8257019
:1002C400FFF7A3FF0020DFE7280000202C00002018
:1002D40000000020014B00221A607047BC0100207E
:1002E4004FF0E02304221A6140F69F725A610522FE
:1002F4001A6170470E4AD36C43F00503D3644FF080
:1003040090431A6822F440521A601A6842F48052E8
:100314001A601A6822F440621A601A6842F4806211
:100324001A60D3F8002822F04062C3F8002870470E
:1003340000100240074B1B68B3F57A7F08D34FF0D7
:100344009042536983F040035361024B00221A60C8
:10035400704700BFBC01002008B5FFF7BBFFFFF7E3
:10036400BFFFFFF7C7FF4FF09042536923F04003EC
:10037400536111E04FF09043D3F8103813F4005F49
:10038400F8D00D4A13685B4213600CE0FFF7D2FF0C
:100394000A4A1368013313604FF09043D3F81038BE
:1003A40013F4005FE6D0044B1B68B3F1FF3FEDD0BC
:1003B400024B00221A60EFE704000020BC01002079
:1003C4000D488546AFF300800C480D490D4A0023C3
:1003D40002E0D458C4500433C4188C42F9D30A4AF6
:1003E4000A4C002301E013600432A242FBD3FFF75E
:1003F400E7FEFFF7B1FFFEE70080012000000020C8
:10040400080000203C04000808000020C00100206F
:10041400FEE70000F8B500BFF8BC08BC9E46704774
:0C042400F8B500BFF8BC08BC9E4670474D
:0804300011020008A9010008F7
:040438008501000832
:08043C00240000200100000073
:04000005080003C527
:00000001FF
